:020000040000FA
:1000000000170010E1000000E9000000D50000002A
:10001000ED000000EF000000F10000000000000013
:10002000000000000000000000000000F3000000DD
:10003000F500000000000000F7000000F9000000DB
:10004000F523000015240000FB000000FB00000069
:10005000FB000000FB000000F11A0000911B0000F3
:10006000311C0000AD0C0000DD0C00005D0D000037
:100070008D0D0000FB00000085020000FB00000069
:10008000FB000000FB000000FB000000FB00000084
:10009000FB000000FB000000FB000000FB00000074
:1000A000FB000000FB000000FB000000FB00000064
:1000B000FB000000FB000000FB000000FB00000054
:1000C0000348854600F06AF800480047A52700006D
:1000D000001700107F23F8B5684600F09CF8F8BDC3
:1000E0000648804706480047FEE7FEE7FEE7FEE7D2
:1000F000FEE7FEE7FEE7FEE7FEE7FEE7AD0A0000EB
:10010000C100000030B50B4601460020202201242A
:1001100009E00D46D5409D4205D31D469540491B3B
:100120002546954040191546521E002DF1DC30BD84
:1001300070B500242546002801DA01244042002938
:1001400001DA01254942FFF7DDFFAC4200D0404211
:10015000002C00D0494270BD03460B439B0703D0DF
:1001600009E008C9121F08C0042AFAD203E00B787C
:100170000370401C491C521EF9D27047421C017882
:10018000401C0029FBD1801A704703460A78027090
:10019000401C491C002AF9D118467047064C01251D
:1001A000064E05E0E36807CC2B430C3C984710341F
:1001B000B442F7D3FFF788FFC02C0000E02C00000A
:1001C00070B58C180578401C6B075B0F01D1037864
:1001D000401C2A1106D10278401C03E006780E70FC
:1001E000401C491C5B1EF9D12B0705D40023521E6D
:1001F0000DD40B70491CFAE70378401CCB1A921CF3
:1002000003E01D780D70491C5B1C521EF9D5A142FC
:10021000D8D3002070BD7047C106C90E01208840A8
:10022000014908607047000080E100E0C106C90E86
:1002300001208840014908607047000000E100E0AB
:100240008307FF22DB0E9A408907090E9940002898
:100250000BDA0007000F0838830808489B001818BD
:10026000C36993430B43C3617047830804489B00F1
:100270001B181868904308431860704700ED00E0B1
:1002800000E400E070B52249C8694207214817D54B
:100290000269002A03DC4A6904239A434A61002365
:1002A0008C6882681470521C82600269521E02615E
:1002B0005B1C0C2BF4DB02690F2A01DC02784A621A
:1002C000CA69120717D5C268002A14DD4A680123DB
:1002D000DB021A434A6000221E050825C468012C6F
:1002E0000CD08A60C468641EC460521C102AF5DBFE
:1002F0004868984348600320086270BD1446344340
:100300008C60C468641EC4604C69AC434C61E9E70E
:100310000000054034050010F7B5002482B01546F2
:1003200026464F097DE041A10020029A00F09EFA86
:100330002819C27881780091019243782A5D3EA104
:10034000002000F093FA241D2819C27881780091CA
:10035000019243782A5D38A1002000F087FA241D1D
:100360002819C27881780091019243782A5D32A1E0
:10037000002000F07BFA241D2819C27881780091B2
:10038000019243782A5D31A1002000F06FFA052028
:10039000000781690122920211438161029823A121
:1003A0001030024602900020241D00F05FFA281948
:1003B000C27881780091019243782A5D1EA10020C5
:1003C00000F054FA241D2819C27881780091019216
:1003D00043782A5D18A1002000F048FA241D28194E
:1003E000C27881780091019243782A5D12A10020A1
:1003F00000F03CFA241D2819C278817800910192FE
:1004000043782A5D11A1002000F030FA02984121C2
:100410001030029049020220241D401C8842FCDB5F
:10042000761CB74200D97EE705B0F0BD41445220AA
:10043000253558203A2000002025325820253258F2
:10044000202532582025325800000000202532583F
:1004500020253258202532582025325820200D0AD8
:1004600000000000F0B5284BDC6B1E252C43DC633C
:10047000264B01241C61264C1C601C68C025AC4323
:100480001C601124E4015C600324DC62C91C204E62
:10049000A143853E33E05D6835435D60DC6206253F
:1004A0009D605F680125ED02AF435F60DF68FF0676
:1004B000FCD45F6837435F60DC6202279F600704FB
:1004C0003F0E9F60C7B29F6017789F6057789F600C
:1004D00097789F60D7789F6017799F6057799F6062
:1004E00097799F60D7799F605F68AF435F60074FE0
:1004F0000C3708323D68ED06FCD408300839002975
:10050000C9D10020F0BD00004000004000000540BF
:10051000070900000948C16B094A1143C163094832
:10052000026B41140A430263826B0A438263426B8B
:100530000A434263C26B0A43C263704740000040F3
:100540001000400140200040F0B529490024CD6B47
:100550002346284E3543CD63274902270F61274D97
:100560000D600D68C026B5430D601125ED014D608D
:100570000325CD628D6005022D0E8D6005042D0EC4
:100580008D60C0B2886000208860401C0C28FBDBB6
:1005900048683843486048680125ED02A843486030
:1005A00019E0C868000609D5032C07DA124D0020AF
:1005B0000835641C2860401C0828FBDBC86840061E
:1005C00009D5042B07DA00205B1C8D681570401CD0
:1005D000521C0828F9DBC868C006E2D400208B68EA
:1005E0001370401C521C0428F9DB0020F0BD0000F1
:1005F000400000404000400100200540070400008A
:10060000F8B58C460021264A0091D36B254C234334
:10061000D363254B0E221A61244B0C261A68FF2443
:1006200024040227A2437C0522431A60204D6960FE
:100630000121204B8A031A601F4C27611F4A226048
:100640002268C0239A4322601522D20162600322ED
:10065000E2626662A1626146C91C9143E262A260E5
:100660000204120EA260C0B2A060E960C91C296138
:100670000C212869FFF75CFD2970606838436060D1
:100680006068E1148843606060693043606102E043
:100690000098401C0090E068C006F9D40020F8BD26
:1006A0004000004013006001801100400CE400E0B5
:1006B0003405001000E100E00000054007040000E0
:1006C000FFB5114F0446387881B01D461646002804
:1006D00001D101F0AFFE7869A04211D918200A4972
:1006E00060434118002C06D002984E668D6608665D
:1006F00000200867C8660A984867002005B0F0BD6A
:100700000020C043FAE7000000700010FFB5114F51
:100710000446387881B01D461646002801D101F004
:1007200089FE3869A04211D918200A49604341184E
:10073000002C06D00298CE610D628861002088628C
:1007400048620A98C862002005B0F0BD0020C0438E
:10075000FAE700000070001010B503480078002888
:1007600001D101F067FE10BD00700010F8B504461D
:1007700016480078002801D101F05CFEFF2000251A
:1007800069460870102C1DD21148104E005D48704B
:100790001836307D0E4F8007800F7F1E02280BD049
:1007A000304601F099FE02280CD33C7002226946C3
:1007B000304601F0BCFF07E03C700222304601F0F9
:1007C00086FF01E00025ED432846F8BD00700010CB
:1007D0004905001070B5074B0646187814460D46BB
:1007E000002801D101F026FE22462946304600F0BD
:1007F00003F870BD0070001070B50E461821484314
:10080000134914464518E86A1835002804D0012811
:100810000FD0022805D113E0284601F05DFEA0426A
:1008200001D2002411E022463146284601F07FFF24
:100830000BE0284601F050FEA042F4D20446F2E755
:100840003146284601F043FF0446204670BD0000B3
:100850000070001070B505460C460846FFF78EFC88
:10086000024621462846FFF7B5FF70BD0FB408B514
:1008700004A900916A46039900F004F801B008BC8D
:1008800004B01847F7B598B007A80290402000259B
:100890000495039018980C46059506902178641CE1
:1008A000002977D0252907D002A801F0F1FE05988C
:1008B0000028F3DA1BB0F0BD012200210227134605
:1008C0000826207823281BD02B2816D02D2802D0CC
:1008D000302806D101E0194300E03943641C002AA6
:1008E000EFD1002220780346303B0A2B0AD20A239C
:1008F0005A431218303A641CF4E704200143EDE730
:100900003143EBE70023C7B22E2F0AD1641C2078B5
:100910000746303F0A2F04D20A277B431B18303B7F
:10092000F4E76C280DD068280BD0702852D00BDC6F
:1009300025285AD058282ED063280CD0642858D1A6
:1009400010E02078641CECE7732832D0752817D0AB
:1009500078284ED11FE01A981A9A0068011D11607C
:10096000017843E01A981A9F0068061D3E600068EF
:100970000191009201460A2202A801F0B8FD38E078
:100980001A981A9F0068061D3E6000680092019147
:100990000A2209E02FE01A981A9F0068061D3E609F
:1009A0000068009201911022014602A801F004FEA5
:1009B0001FE01A981A9A0068011D116006683178C4
:1009C000761C002915D002A801F062FE05980028C7
:1009D000F5DA0EE01A981A9A00680823011D1160D2
:1009E0000168102200960195DFE7252102A801F099
:1009F0004FFE641C5BE70598002800DC5AE704986A
:100A0000002804D0024607A91898FFF7E3FE0499CE
:100A10000598401805904DE70CB51F48C16B1F4A5B
:100A20001143C1631E48022101611E4A026002682F
:100A3000C0239A43026041600322C2624368C1142A
:100A40000B4343600623836043688B43436002E0AB
:100A5000009B5B1C0093C368DB06F9D48368019399
:100A6000104B08330360C26242680F4B1A43426066
:100A700005221202826042688A43426002E00099C5
:100A8000491C0091C168C906F9D48068019000989A
:100A9000401E009001980CBD400000401000400135
:100AA0000000054007040000020800000249014858
:100AB0000860704780F0FA020000001010B50300D3
:100AC00001F053FE07050507101924313B000620ED
:100AD00031E0002902D0012902D02EE000202AE0D6
:100AE000012028E0002902D0012902D025E00320BE
:100AF00021E004201FE0002904D0012902D00229AE
:100B000002D01AE0072016E0082014E0002902D0E5
:100B1000012904D011E00920FFF77EFB08E00B203B
:100B2000FFF77AFB06E0002902D0012902D004E099
:100B30000A2000E00C20FFF76FFB002010BD000032
:100B4000F8B5444A002706268D00141D030001F065
:100B50000CFE070507112A3D576A7E003E4801E05A
:100B60003D4880302818066000210620FFF768FB0A
:100B700006206AE037488038002904D0012909D0CE
:100B80000020C043F8BD076000210846FFF758FB6E
:100B900000205AE02F4901207C3908600021FFF72E
:100BA0004FFB012051E0002902D0012907D04EE07F
:100BB000032010600021FFF743FB032045E00420E1
:100BC00020600021FFF73CFB04203EE007200029C5
:100BD00004D0012904D0022909D038E0106100E0D6
:100BE000206100210720FFF72BFB07202DE019498A
:100BF0000820083108610021FFF722FB082024E0CB
:100C0000002902D0012907D021E00920106200212B
:100C1000FFF716FB092018E00B2020620021FFF7E8
:100C20000FFB0B2011E0002902D0012907D00EE0B4
:100C30000A2010630021FFF703FB0A2005E00C20C7
:100C400020630021FFF7FCFA0C20FFF7EFFA0020E9
:100C5000F8BD00008011004000100040014800680D
:100C600070470000000000107047000010B5024AF5
:100C700000F0ACF810BD00005400001010B50248A0
:100C800000F01AF910BD00005400001010B5024821
:100C900000F01AF910BD00005400001010B5024910
:100CA00000F0A8F910BD00005400001010B5024873
:100CB00000F0BEF910BD00005400001038B5024C21
:100CC000009400F06FFA38BD5400001038B5024CA3
:100CD000009400F0F3FA38BD5400001010B502483B
:100CE00000F062FC10BD00005400001010B5024A74
:100CF00000F022FD10BD00005400001010B5024AA3
:100D000000F0A0FD10BD00005400001010B5024816
:100D100000F08CFE10BD00005400001010B5024A17
:100D200000F054F810BD00003C01001010B502485E
:100D300000F0C2F810BD00003C01001010B50248E0
:100D400000F0C2F810BD00003C01001010B50249CF
:100D500000F050F910BD00003C01001010B5024831
:100D600000F066F910BD00003C01001038B5024CDF
:100D7000009400F017FA38BD3C01001038B5024C61
:100D8000009400F09BFA38BD3C01001010B50248F9
:100D900000F00AFC10BD00003C01001010B5024A32
:100DA00000F0CAFC10BD00003C01001010B5024A62
:100DB00000F048FD10BD00003C01001010B50248D5
:100DC00000F034FE10BD00003C01001070B50C4670
:100DD0000146150010D0686800280DD000260B00D1
:100DE00001F0C3FC11620D0F112E3032434D5254ED
:100DF00056585A5C5E6062000420C04370BD946126
:100E00001CE0D4611AE0012C04D0022C0AD003208B
:100E1000C04370BDFFF722FF2549FFF773F9401E5D
:100E2000696809E0FFF71AFF2249FFF76BF9012112
:100E3000C907401E0843696848602C62304670BD8F
:100E40005462FBE79462F9E7298A0A04A107890F33
:100E5000002A02DA0164686805E0FF3001300164AD
:100E60006868FF3001300664E8E7FF21013102685D
:100E7000002C01D00A4300E08A430260DEE71146FD
:100E8000204600F0E3FD70BD1463D7E75463D5E757
:100E90009463D3E7D463D1E71464CFE75464CDE718
:100EA0009464CBE7D464C9E70820C04370BD000058
:100EB00080841E00809698000169C90301D5C06D29
:100EC0007047806D7047000010B501690A046ED547
:100ED00042689369DB0702D00123194301E0490806
:100EE0004900016193699C070223002C01DA194330
:100EF00000E09943016193695C070423002C01DA47
:100F0000194300E09943016193691C070823002CF1
:100F100001DA194300E0994301619369DC0610236B
:100F2000002C01DA194300E09943016193699C06A2
:100F30002023002C01DA194300E0994301619369F1
:100F40005C064023002C01DA194300E0994301615B
:100F50009369DC058023002C01DA194300E09943F2
:100F6000016193699C051D4B01D5194300E099432C
:100F7000016193691C051A4B01D5194300E099439F
:100F800001619369DC04174B01D5194300E09943D3
:100F9000016193699C04144B01D5194300E0994306
:100FA000016193691C04114B02D5194301E012E061
:100FB0009943016193695C000D4B01D5194300E031
:100FC00099430161936901229203002B01DA1143D5
:100FD00000E091430161084610BD000000010000DF
:100FE00000020000000400000008000000100000E3
:100FF00000200000002908D04A68002A05D00A7D98
:10100000D20705D00A20C04370470420C043704770
:1010100001224A61C860002008610448C26B803127
:10102000496E0A43C2630020704700004000004040
:10103000F8B50446217D00206268C90711D0916986
:10104000156B052212032F4617400226002F30D0C1
:101050000922120311422CD0236DA26D9A421FD394
:1010600027E00020906205202168FFF727FDF8BDEA
:1010700022466032431CA365805C0861216DA06D2F
:1010800088420DD1E1680120002900D088476068BE
:10109000466161680020886205202168FFF70EFD27
:1010A000216DA06D884238D261688A699204DFD4CC
:1010B00033E0052252032F46174031D00B22120293
:1010C00011422DD0636DE26D9A4229D222468032C0
:1010D0000092126E002A18D122E00969009A431C7E
:1010E000126EE3651154616DE06D88420DD1606848
:1010F000466161680020886205202168FFF7DEFCF8
:10110000E1680120002900D08847616DE06D8842C8
:1011100003D261688A69D205DFD460684763F8BD8D
:10112000CA0600D520208A0601D5102210434A079E
:10113000920F00D030438A0705D5236DA26D9A42E5
:1011400001D3012210434A0700D53043090700D5D7
:101150003043290602D5012109030843290501D599
:1011600080210843690501D540210843E90402D5DF
:10117000FF2101310843A90402D501214902084396
:10118000690402D5012189020843290402D50121FD
:10119000C9020843E168002900D0884760684563B8
:1011A000F8BD0000FFB581B00A9C16460F001AD0AA
:1011B000002E18D0207DC00719D00025E565606895
:1011C0008562A069002850D003212069C903084323
:1011D000206122463146019800F024F9616801201F
:1011E000486100203EE00420C04305B0F0BD00206F
:1011F000C043FAE700BF00BF626891698B0703D55F
:101200004B0701D40B0715D59369DB0512D511697E
:101210003954E16D401C491CE165012801D1616828
:101220004D61B0421ED1049900291BD16268022190
:10123000516117E0CA0605D5204600F0C7FB0C2017
:10124000C043D2E78A0605D5204600F0BFFB0B203D
:10125000C043CAE7490605D5204600F0B7FB0D207C
:10126000C043C2E7B042C5D323E005202168FFF7A1
:1012700025FC00206168C043486360684563032122
:101280002069C9030843206122463146019800F0D5
:10129000C9F8E0200751A565E565666525656168C3
:1012A0000120486161680448886205202168FFF7D1
:1012B00047FC002099E70000F2A00000FFB581B0D4
:1012C0000746029800260A9C1546002801D0802D6A
:1012D00003D90420C04305B0F0BD207DC0071FD056
:1012E000616800208862A065A06900286AD0012199
:1012F0002069C90308434900884320616068016888
:1013000004221143016022462946384600F08AF83B
:10131000606841690122114341610D27FF4330E0BC
:101320000020C043D7E700BF00BF6168886982071B
:1013300003D5420701D4020711D582040FD5029AC2
:10134000925D0A61A16D6D1E491CA1650499761C10
:10135000294304D161684A6902231A434A61C106DC
:1013600005D5204600F032FB0C20C043B3E78106D0
:1013700005D5204600F02AFB0B20C043ABE7400612
:1013800008D4002DCFD1606809E000BF00BF81699B
:10139000490604D5204600F019FB38469BE78169D1
:1013A000C904F2D58069C00405D4204600F00EFBC4
:1013B0000E20C0438FE7049800282ED1204600F06D
:1013C00005FB2AE005202168FFF778FB0020616813
:1013D000C043486360680026466301212069C90351
:1013E000084349008843206122462946384600F0D8
:1013F00019F820462A4660300299FEF7ADFEA66530
:10140000E665666525656168012048616168044894
:10141000886205202168FFF793FB00205BE700004E
:10142000F2500000F0B5138A04251B045468002B09
:1014300003DA0423FF34013400E004232668AE43BA
:101440002660148A032526040024002E5DDA166B1C
:10145000002E02D0F607360F3343566B002E02D013
:10146000F607F60E3343966B002E02D0F607B60E43
:101470003343D66B002E02D0F607760E3343D66A7E
:10148000002E02D0F607F60D334356683360D36C56
:10149000002B0CD05668376801235B021F4337606E
:1014A0005768D66C7E64566837689F4337605368C8
:1014B00099605168CC605168CB6840000343CB60B1
:1014C0001169C80305D55068C368C903C90F0B4328
:1014D000C360906A002805D05168CB68C007000C33
:1014E0000343CB60906C002801D051688864106C75
:1014F000002801D051688863506C002801D05168E1
:10150000C8635068056450684AE0106B002802D038
:10151000C007000F0343506B002802D0C007C00E65
:1015200003435068FF30013003605068FF300130E2
:1015300041605068FF30013084605068FF300130F6
:101540008168536A5B00194381601169C80307D53C
:101550005068FF3001308368C903C90F0B438360B3
:10156000916A002907D05068FF3001308368C907AD
:10157000090C0B438360106C002803D05168FF31C5
:1015800001318863506C002803D05168FF3101316C
:10159000C8635068FF30013005645068FF30013087
:1015A00004640020F0BD0000F8B50446217D002051
:1015B000C90762680646002915D0D11DF9310B46CE
:1015C00089691D6BAB0514D5216DA06D884209D0CA
:1015D000966206202168FFF771FAE168022000296F
:1015E00000D08847F8BD966206202168FFF766FAAA
:1015F000F8BD152292022F46174027D04D4A1142BE
:1016000024D0236DA26D9A4215D31FE0224660328A
:10161000431CA365805C0861216DA06D88420AD1DE
:101620006068866206202168FFF748FAE1680120B9
:10163000002900D08847216DA06D88423AD26168A8
:10164000FF3101318A699204E0D433E0052252036C
:101650002F46174033D00B22120211422FD0636D58
:10166000E26D9A422BD2224680320092126E002AFC
:1016700016D124E00969009A0346126E401CE06509
:10168000D154616DE06D88420AD16068866206209F
:101690002168FFF713FAE1680120002900D088478C
:1016A000616DE06D884205D26168FF3101318A6960
:1016B000D205DFD46068FF3001304763F8BD4B06C8
:1016C0000222002B00DA0220CB0705D0276DA36D84
:1016D000BB4201D3012318434B0700D51043C90671
:1016E000890F00D01043290501D580210843052129
:1016F00089020D4202D0FF2101310843A90402D51D
:10170000012149020843690402D5012189020843E5
:10171000290402D50121C9020843E168002900D04B
:1017200088476068FF30013045636068FF300130F2
:101730004663F8BD0C900000F8B50E46070014464D
:1017400023D0002E21D0207DC1073C481FD06168E6
:101750000025FF3101318D626168FF31013148633D
:10176000E565A06900283DD001212069C9038843AF
:1017700049000843206131460020FFF753FEFFF780
:1017800073FAE169401A00901CE00420C043F8BDE0
:1017900000BF00BF6168FF3101318869820703D54E
:1017A000420701D4C2060DD5C00505D50869785594
:1017B000E06D401C6D1CE0656068FF300130C06A60
:1017C000800507D4B54205D2FFF74EFA01460098CE
:1017D0008142DDD2B5422ED2204600F0F7F80E202D
:1017E000C043F8BD06202168FFF768F96168002052
:1017F000C043FF31013148636068FF300130456309
:1018000001212069C9038843490008432061224619
:1018100031460020FFF706FEE0200751A565E5658B
:101820006665256561680648FF31013188620620DA
:101830002168FFF785F90020F8BD0000FFFFFFFFDA
:1018400063AB0000F7B5009814460D4600281ED083
:10185000002D1CD0207DC1075A481AD0616800268F
:10186000FF3101318E6207466068FF300130476307
:10187000A665A069002869D003212069C9038843AF
:10188000206129460020FFF7CDFD6D1C0AE00420F1
:10189000C043FEBD0099895D0161A06D6D1E401CB5
:1018A000761CA065002D05D06068FF30013081698D
:1018B0008904EFD4FFF7D8F9E169471A1AE000BFAD
:1018C00000BF6168FF31013188694207920F01D181
:1018D000020709D5800407D50098805D0861A06DD6
:1018E0006D1E401C761CA0656068FF300130C06A28
:1018F000800506D4002D13D0FFF7B6F9B842DED22A
:101900001EE0002D1CD10BE000BF00BF6068FF305F
:101910000130C06A800503D5204600F057F84EE03C
:101920006068FF3001308069C00403D4FFF79CF980
:10193000B842E9D26068FF3001308069C0043ED40B
:10194000204600F043F80E20C043FEBD062021686B
:10195000FFF7B4F86068FF30013047636068FF301C
:101960000130466303212069C90388432061224670
:1019700029460020FFF756FD20462A466030009990
:10198000FEF7EAFBA665E66566650020256503E0CF
:10199000009A125C0A61401C216D814205D9616880
:1019A000FF3101318A699204F2D4A065606806496A
:1019B000FF300130816206202168FFF7C1F8002066
:1019C000FEBD0000FFFFFFFF6357000010B5044697
:1019D00040684169022211434161012000F0F6FC98
:1019E0006168002008606168FF3101310860218A68
:1019F0000A040321002A626806DA90606268D060F7
:101A00006268116461680DE0FF3201325060626803
:101A1000FF32013290606268FF3201321164616806
:101A2000FF3101310864002010BD0000017DC907AD
:101A300008D000214161C1600349CA6B8030406E0B
:101A40008243CA63002070474000004010B50C4636
:101A500009680520FFF732F806202168FFF72EF805
:101A60006168002088626168FF31013188626168C5
:101A7000401E08646168FF310131086460680268D3
:101A800004218A4302606068FF30013002688A43A3
:101A90000260002010BD000008B5044968460A88AD
:101AA000028049884180009808BD0000802B00001A
:101AB00010B5024A00F010F910BD00009C020010A1
:101AC00010B5024800F071F910BD00009C02001032
:101AD00010B5024800F06BF910BD00009C02001028
:101AE00010B5024800F0B0F910BD00009C020010D3
:101AF00010B5024800F0C8F910BD00009C020010AB
:101B000010B5024900F0A2F910BD00009C020010BF
:101B100010B5024A00F044FA10BD00009C0200100B
:101B200010B5024A00F044FB10BD00009C020010FA
:101B300010B5024B00F08AFB10BD00009C020010A3
:101B400010B5024800F00EFC10BD00009C02001011
:101B500010B5024A00F0C0F810BD00007803001074
:101B600010B5024800F021F910BD00007803001004
:101B700010B5024800F01BF910BD000078030010FA
:101B800010B5024800F060F910BD000078030010A5
:101B900010B5024800F078F910BD0000780300107D
:101BA00010B5024900F052F910BD00007803001092
:101BB00010B5024A00F0F4F910BD000078030010DF
:101BC00010B5024A00F0F4FA10BD000078030010CE
:101BD00010B5024B00F03AFB10BD00007803001076
:101BE00010B5024800F0BEFB10BD000078030010E5
:101BF00010B5024A00F070F810BD00005404001047
:101C000010B5024800F0D1F810BD000054040010D7
:101C100010B5024800F0CBF810BD000054040010CD
:101C200010B5024800F010F910BD00005404001077
:101C300010B5024800F028F910BD0000540400104F
:101C400010B5024900F002F910BD00005404001064
:101C500010B5024A00F0A4F910BD000054040010B1
:101C600010B5024A00F0A4FA10BD000054040010A0
:101C700010B5024B00F0EAFA10BD00005404001049
:101C800010B5024800F06EFB10BD000054040010B7
:101C9000002908D04968002905D08022002848681A
:101CA00004D0104303E00420C043704790434860D1
:101CB00000207047002908D04968002905D0082273
:101CC0000028486804D0104303E00420C043704754
:101CD000904348600020704770B515000C460DD049
:101CE000696800290AD0030000F03FFD0E0B0D19B2
:101CF0000F142D323C371E232842464A0420C0438D
:101D000070BD946132E0D46130E01146204600F0AD
:101D100020FA2BE011462046FFF7CCFF26E01146C3
:101D2000204600F0BAF921E01146204600F0CAF939
:101D30001CE01146204600F020FA17E0114620462C
:101D400000F0FCF912E01146204600F0E4F90DE045
:101D500011462046FFF79CFF08E01146204600F0A0
:101D600017FA03E01146204600F086F9002070BD06
:101D70001146204600F00CFB2946204600F003F8EF
:101D80000B20C04370BD00290AD04968002907D044
:101D900002220128486806D090434860002070471E
:101DA0000420C04370471043F7E7006D704710B53B
:101DB00042680146D068C307086902D0012318436E
:101DC00001E0400840000861D3689C070223002C12
:101DD00001DA184300E098430861D3685C070423E4
:101DE000002C01DA184300E098430861D3681C070F
:101DF0000823002C01DA184300E098430861D368F7
:101E0000DC061023002C01DA184300E09843086137
:101E1000D3689C062023002C01DA184300E0984385
:101E20000861D3685C064023002C01DA184300E007
:101E300098430861D26813068022002B01DA104310
:101E400000E09043086110BDC06C7047002916D0B7
:101E50004A68002A13D0C8600869102290430861BC
:101E6000012048610748C26BD8235B581A43C263FC
:101E700048684168022211434160002070470420F5
:101E8000C043704740000040F8B50446007DC007DD
:101E900037D06068C569E80704D0E168002901D03F
:101EA000022088476268D068214605232E465431B7
:101EB0001E408C46002E53D0274680377E6D002E64
:101EC0004ED0616A002942D141071AD5A76C216D15
:101ED000B94216D297684A1C2265775461680D6230
:101EE000A26C216D91420DD36068416999434161B3
:101EF00004202168FEF7E2FDE168002901D00120FD
:101F00008847F8BD00210F4610E083070DD5A36A6E
:101F1000002B09D0656CE36CAB4205D25D1C6646B4
:101F2000E5649B5D936000E09760491C6268536ABA
:101F30008B42EAD8F8BD61688968461C7A6D2665CF
:101F400011546068C068A26C216D9142CCD24007E8
:101F500003D5A16C206D8842EDD360680562F8BDA1
:101F60002907FAD50006F8D5616CE06C8842F4D2F6
:101F7000431C6146E364405C9060616CE06C8842A5
:101F8000EBD36068416908229143416104202168D4
:101F9000FEF794FDE1680029DFD001208847DCE7E7
:101FA000FEB50746506B14460E46082801D902209C
:101FB00000E001200190002F15D0002E13D0207DCD
:101FC000C00713D060680025456161680120C862C0
:101FD00061680220C862A562A069002828D0606AF2
:101FE000002806D007E00420C043FEBD0020C04307
:101FF000FEBD60688560256500BF00BF6068C16880
:10200000490712D5806869460880206DC319401CB5
:1020100020651846019AFEF79FF8761E2AD0606A5E
:102020000028E9D160688560E6E7002EE4D121E070
:1020300004202168FEF742FD616805200862E5641E
:102040002565A664D42165640F5161684861042048
:102050002168FEF775FD606A002802D005E08D60FA
:10206000401C61684A6A8242F9D86068416802226D
:10207000114341600020FEBD00290BD04A68002AB0
:1020800008D048631168401E0007000F014311602B
:10209000002070470420C043704710B500290ED0BF
:1020A0004A68002A0BD01368C024A3431360496810
:1020B0000A688007000E02430A60002010BD042059
:1020C000C04310BD70B50C0005460BD060680028F9
:1020D00008D0002D06D0FEF7C1FDA84205D8012684
:1020E000002009E00420C04370BD0226FEF7B6FDC3
:1020F0006900FEF707F8401E61680E6161680A68B2
:10210000FF231B029A430A6061680A6800020243C7
:102110000A60002070BD002908D04968002905D058
:102120000028486805D00122104304E00420C04381
:10213000704740084000486000207047002905D0E3
:102140004968002902D04862002070470420C0433B
:10215000704710B5002908D04A68002A05D004232A
:102160005468002804D01C4303E00420C04310BD81
:102170009C4354604862002010BD002905D0496886
:10218000002902D08862002070470420C0437047B5
:10219000002909D04968002906D04A684007400E46
:1021A00002434A60002070470420C043704700008B
:1021B000F8B50E462449140007461ED06068002872
:1021C0001BD0002F19D0002E17D000254561616863
:1021D0000220C862A562A069002816D0E564616883
:1021E000C868800705D5E06C421CE264385C8860F2
:1021F000761E002EF3D1606803E00846F8BD00BFEC
:1022000000BFC168C906FAD51CE004202168FEF7AA
:1022100055FC616808200862204632463946543031
:10222000FDF79AFFE56425656664A564606841680A
:10223000022211434160616808204861042021683E
:10224000FEF77EFC0020F8BDFBFFFFFFFFB581B06D
:1022500001981C4615460F46002824D0002F22D096
:10226000002D20D0207DC00721D060680026466167
:1022700061680120C86262680221D162A062A0691F
:10228000002844D06D1CFEF7EFFCE169401A009075
:10229000606841680222114341602665E664606A15
:1022A000002807D022E00420C04305B0F0BD002084
:1022B000C043FAE70120E06461683878886015E07F
:1022C00000BF00BF6068C168490705D58268206DFE
:1022D0000199431C23650A546168C868800704D5C6
:1022E000E06C421CE264385C88606D1E002D04D0F6
:1022F000FEF7BAFC00998842E2D260684168022287
:1023000091434160002D2BD00D20C043CDE7042028
:102310002168FEF7D3FB616805200862E664656406
:102320002665A564D4210198085120462A463946DD
:102330005430FDF711FF61680520486104202168D1
:10234000FEF7FEFB60684168022211434160606A4B
:10235000002805D1E06C411CE1646168385C88604C
:102360000020A2E700280ED0416800290BD04A685F
:1023700002239A434A600549CA6B8030806D8243CC
:10238000CA63002070470420C043704740000040EB
:1023900010B50C4609680420FEF790FB6168002028
:1023A000486162680121D16262680221D162A06243
:1023B00010BD000008B5044968460A8802804988B3
:1023C0004180009808BD0000842B000010B5044631
:1023D000074806490068FDF795FE6043002101E0CB
:1023E00000BF491C8142FBD310BD000070170000E4
:1023F0000000001010B500210220FEF75FFB044929
:102400000120087000210220FEF79AFB10BD000099
:102410003005001010B501210220FEF74FFB0449E2
:102420000120487001460220FEF78AFB10BD000023
:102430003005001010B51B4C0320206160611AA00C
:10244000A0611C48E0610120800220620020A0629F
:10245000606215A12166E062102220671649A2661B
:102460006166E06615A121631349606710316163FD
:10247000D101A1632064E06310A1A16760641249E7
:10248000E1672146803188600A604860C8600FA11A
:10249000E01DFDF77AFE0EA12046FDF776FE202016
:1024A000A07110BD007000105465726D696E616C92
:1024B00000000000E0060010E00A00104A53636FBD
:1024C00070655F7531000000F01200105254540026
:1024D00053454747455200000269C1688A4203D804
:1024E0008068401A801800E0501A401E7047FFB5FF
:1024F00083B00E4670420D9F0C9C0090002900DBBB
:102500000846012502E0FDF713FE6D1C059988427F
:10251000F9DA0698A84200D90546002C04D0002E0E
:1025200001DB780700D5641EB80702D5069800289D
:1025300010D0F8070ED1002C0CD0A5420AD22021D1
:10254000641E039800F0A4F80398C0680028F2DA2B
:1025500007B0F0BD0398C0680028F9DB002E02DA4E
:102560002D21009E02E0780707D52B21039800F06B
:102570008FF80398C0680028EADBB807800F0228AC
:1025800010D1069800280DD1002C0BD0A54209D2FD
:102590003021641E039800F07BF80398C06800287F
:1025A000F2DAD5E7019700943146069B059A039825
:1025B00000F002F8CCE70000FFB581B001261F460D
:1025C00034460A9D029802E0FDF79CFD641C0399C5
:1025D0008842F9D2A74200D93C460B98C00718D1CF
:1025E000002D16D00B98800701D5002F02D0202097
:1025F00000900CE03020FBE76D1E0099019800F080
:1026000047F80198C06800283DDB002D01D0AC429E
:10261000F2D30198C068002835DB012F01D97F1E55
:1026200006E031460298FDF76DFD0399884202D31A
:1026300003984643F1E7154F31460298FDF762FDD6
:102640000146029A7143511A0291395C019800F0D7
:102650001FF80198C068002805DB30460399FDF794
:1026600051FD0600E8D10B98C0070CD0002D0AD010
:10267000AC4208D220216D1E019800F009F80198A3
:10268000C0680028F2DA05B0F0BD0000882B000019
:1026900010B5044680686368421C934205D32368E2
:1026A0001954A260E068401CE060A2686068824241
:1026B00009D121682069FEF78DF8A168884203D00E
:1026C0000020C043E06010BD0020A06010BDF7B541
:1026D000064682B000200090F46817463069A04298
:1026E00001D9051B02E0B168201A0D1AB0686D1EF1
:1026F000001BA84200D80546BD4200D33D46706885
:102700002A4600190399FDF727FD00987F1B401901
:1027100000900398641940190390B068A04200D15A
:102720000024F460002FD9D1009805B0F0BDF7B5B2
:102730000446C7688068E168C51B60681646401893
:10274000B54205D90199FDF707FDB819E060FEBD56
:102750002A460199FDF700FD0198761B4119324682
:102760006068FDF7F9FCE660FEBD30B47446641E97
:102770002578641CAB4200D21D46635D5B00E31804
:1027800030BC184702E008C8121F08C1002AFAD15D
:1027900070477047002001E001C1121F002AFBD1E1
:1027A000704700006C49C4B0CA6B00206B4B1A43E1
:1027B000CA636B4A6A4DC914803283005C1926686B
:1027C0000E432660182803DA9B181C680C431C6013
:1027D000401C2028F1DB05263607306A13218901C9
:1027E00008433062B068C0218843B060B0680121FE
:1027F00089020843B0605B4C052020615A48606143
:10280000A069FDF7A9FF022000908023574A58A134
:102810000120FDF77BFF0020544A00908023803A7E
:1028200055A10120FDF74CFF55A10020FEF71EF831
:1028300061A10020FEF71AF8FDF76CFEFEF7ECF838
:10284000020003D069A10020FEF710F86F490020B4
:10285000FEF70CF803A80025024601902021284627
:10286000FDF772FE6AA10020FEF700F8764900200D
:10287000FDF7FCFF40212846019AFDF74DFD734905
:102880000020FDF7E7FF0020FDF770FF01252D0375
:102890002F11002003AAFF23191A1154401CFF28EE
:1028A000FADDFDF737FE39462846019AFDF7DAFDD5
:1028B00067A10020FDF7DAFF39462846019AFDF7A7
:1028C0002BFD69A10020FDF7D1FF7848764F876086
:1028D00020217748029AFDF793FE402575A100203C
:1028E000FDF7C4FF7D490020FDF7C0FF6F483A4661
:1028F000876029466E48FDF70FFD0125A7696B49E2
:10290000694888602026812031464001019AFDF700
:1029100077FE4020052109078861A069381A0090D8
:10292000A769812031464001019AFDF70DFEA0699B
:102930003E1A012DE2D16AA10020009AFDF796FF10
:10294000324675A10020FDF791FF81A10020FDF71F
:102950008DFF0025D2E70000400000401300600119
:102960000020004000E000E0FFFF7F006006001054
:10297000446174614F75740044617461496E000074
:102980000A0A2A2A2A2A2A2020414E3132303120AE
:102990004578616D706C6520636F64652074657245
:1029A0006D696E616C206F757470757420202A2AB1
:1029B0002A2A2A0A0A0000000A0A3E3E3E3E3E201B
:1029C000204578616D706C652031202D2052656145
:1029D00064206F66204652414D20537461747573B4
:1029E0002052656769737465720A00004652414D52
:1029F00020537461747573207265676973746572AE
:102A0000203D20253558200A0A0000007C2C0000BB
:102A10000A2020202B2B2B203332627974657320FF
:102A200066726F6D20426F6F7420454550524F4D56
:102A30002028706F6C6C696E67206D6574686F64B8
:102A40002920202B2B2B0A00302C0000982B000073
:102A50003E3E202050524F4752414D205041474565
:102A600020444154410A0A000A0A3E3E3E3E3E20AE
:102A70004578616D706C652033202D2033322062E3
:102A800079746520726561642066726F6D204652AC
:102A9000414D2028696E746572727570742064727D
:102AA0006976656E290A00005C0500103405001087
:102AB000101000000A2B2B2B2020524541442033BC
:102AC0003262797465732066726F6D204652414D93
:102AD000204441544120202B2B2B0A00E02B0000E6
:102AE0000A0A4475726174696F6E206F6620333212
:102AF0002062797465204652414D207265616420E0
:102B000028636C6F636B206379636C657329202085
:102B100020253564200A00004475726174696F6E67
:102B2000206F66203332206279746520454550520B
:102B30004F4D20726561642028636C6F636B206366
:102B400079636C65732920253564200A0A0A000020
:102B50002A2A2A2A2A2020456E64206F6620414EA8
:102B600031323031205465726D696E616C206F7541
:102B70007470757420202A2A2A2A200A0A0000006C
:102B800000010001000100013031323334353637A5
:102B900038394142434445463E3E3E2053657475B4
:102BA0007020666F72206578616D706C65203320CF
:102BB0002D204D656D6F7279207061747465726E31
:102BC000206265696E67207772697474656E20741F
:102BD0006F20535049204652414D20200A0A0000E0
:102BE0002020204E6F74653A2046697273742074F9
:102BF00068726565206279746573206163636F75BF
:102C00006E7420666F72205245414420636F6D6D73
:102C1000616E6420616E6420322061646472657349
:102C200073202062797465732E200A0A0000000068
:102C30000A20204E6F74653A2046697273742066CC
:102C40006F7572206279746573206163636F756E4E
:102C50007420666F72205245414420636F6D6D6130
:102C60006E6420616E6420332061646472657373E6
:102C7000202062797465732E200A0A000A0A3E3EFB
:102C80003E3E3E20204578616D706C652032202DDF
:102C90002033322062797465207265616420667227
:102CA0006F6D20454550524F4D2028706F6C6C69F8
:102CB0006E67206D6574686F6429200A000000004B
:102CC000E02C0000000000105C050000C0010000C6
:102CD000C02D00005C050010A41100009427000026
:102CE0002780F0FA02991A239D0C230D0D1ACD08A6
:102CF0001ABD041AFD041AED041A7D041A6D041A93
:102D00008D0429281A4D241ABD041A7D041A6D0455
:102D10001AAD041A9D041A2D041A1D041A3D0461EB
:102D20002406400402DA101A0102310DDB100640BD
:102D30002CE812021BB523EE221B1A41041A2104AF
:102D40001A11041A310423B11A1AD1041AE1041A0F
:102D5000C10429281AA1181AE1042AC12019041A49
:102D6000D1041A51041A71041A81041A6104292821
:102D70001B411C1019041A61041A51041A71042A07
:102D8000F15C19081A21041A010461150540240296
:102D900002CC1029CD3A01090CCD05404CDC322083
:102DA0003A02090CCD054074DC011D30113031327E
:102DB0003334353637383941424344454600000004
:04000005000000E116
:00000001FF
